:100000000C9434000C9451000C9451000C94510049
:100010000C9451000C9451000C9451000C9451001C
:100020000C9451000C9451000C9451000C9451000C
:100030000C9451000C9451000C9451000C945100FC
:100040000C9451000C9451000C940C010C94510030
:100050000C9451000C9453000C9451000C945100DA
:100060000C9451000C94510011241FBECFEFD8E026
:10007000DEBFCDBF11E0A0E0B1E0E2EFF2E002C0F0
:1000800005900D92A632B107D9F721E0A6E2B1E0C2
:1000900001C01D92AC32B207E1F70E94E0000C945F
:1000A00077010C9400000F920FB60F921F9211244B
:1000B0002F933F938F939F932091780080917900A5
:1000C00034E0839FC0011124229526952695237044
:1000D000822B20912601211120C090932A01809328
:1000E00029018091260191E0892780932601909132
:1000F0007C0080912601907F892B80937C008091E9
:100100007A00806480937A009F918F913F912F9124
:100110001F900F900FBE0F90189590932801809319
:100120002701DFCFEAE7F0E080818068808380816B
:1001300087608083ACE7B0E08C9180628C938C9177
:1001400080648C93808188608083109226019C91CA
:1001500080912601907F892B8C938081806480839D
:1001600008950F931F93CF93DF93CDB7DEB72A97F0
:100170000FB6F894DEBF0FBECDBF8C01862F90E086
:100180000E9413018AE390E00E9413014AE0BE013D
:100190006F5F7F4FC8010E944201CE0101960E940D
:1001A0001A018AE090E00E9413012A960FB6F89493
:1001B000DEBF0FBECDBFDF91CF911F910F9108958C
:1001C00080E190E00E9430010E949200789480E0EB
:1001D00091E00E941A0180912B01813351F48091AA
:1001E000290190912A0161E30E94B10010922B0134
:1001F000EECF80912B01823331F4809127019091D1
:10020000280162E3F1CF80912B01811579F38EE013
:1002100091E00E941A01EACF8F938091C6008093EB
:100220002B018F9118959091C00095FFFCCF809382
:10023000C60008950F931F93CF93DF93EC018C01B9
:10024000005C1F4F8991811531F090E00E941301ED
:10025000C017D107B9F7DF91CF911F910F91089582
:10026000E2ECF0E020812F73208322E02093C00095
:100270009093C5008093C40086E0808388E98093D2
:10028000C1000895BB274A3031F4992322F4BDE21E
:10029000909581959F4F0C944E01BB27FB015527EC
:1002A000AA27880F991FAA1FA41710F0A41B8395D3
:1002B0005051B9F7A05DAA3308F0A95DA19300974A
:1002C00079F7B111B1931192CB010C946701DC0164
:1002D000FC01672F71917723E1F7329704C07C917D
:1002E0006D9370836291AE17BF07C8F30895F894B9
:0202F000FFCF3E
:1002F200546F646F73207075726F20313000436FDA
:100302006D616E646F206E6F207265636F6E6F63D6
:0603120069646F0A00009F
:00000001FF
